{
  "_format": "hh-sol-artifact-1",
  "contractName": "Greeter",
  "sourceName": "contracts/Greeter.sol",
  "abi": [
    {
      "inputs": [
        {
          "internalType": "string",
          "name": "_greeting",
          "type": "string"
        }
      ],
      "stateMutability": "nonpayable",
      "type": "constructor"
    },
    {
      "inputs": [],
      "name": "greet",
      "outputs": [
        {
          "internalType": "string",
          "name": "",
          "type": "string"
        }
      ],
      "stateMutability": "view",
      "type": "function"
    },
    {
      "inputs": [],
      "name": "increment",
      "outputs": [
        {
          "internalType": "uint256",
          "name": "",
          "type": "uint256"
        }
      ],
      "stateMutability": "nonpayable",
      "type": "function"
    },
    {
      "inputs": [
        {
          "internalType": "string",
          "name": "_greeting",
          "type": "string"
        }
      ],
      "name": "setGreeting",
      "outputs": [],
      "stateMutability": "nonpayable",
      "type": "function"
    },
    {
      "inputs": [],
      "name": "x",
      "outputs": [
        {
          "internalType": "uint256",
          "name": "",
          "type": "uint256"
        }
      ],
      "stateMutability": "view",
      "type": "function"
    }
  ],
  "bytecode": "0x6080604052600180553480156200001557600080fd5b5060405162000d5c38038062000d5c83398181016040528101906200003b91906200027c565b6200006b60405180606001604052806022815260200162000d3a60229139826200008b60201b620002481760201c565b8060009080519060200190620000839291906200015a565b5050620004c9565b6200012d8282604051602401620000a492919062000302565b6040516020818303038152906040527f4b5c4277000000000000000000000000000000000000000000000000000000007bffffffffffffffffffffffffffffffffffffffffffffffffffffffff19166020820180517bffffffffffffffffffffffffffffffffffffffffffffffffffffffff83818316178352505050506200013160201b60201c565b5050565b60008151905060006a636f6e736f6c652e6c6f679050602083016000808483855afa5050505050565b8280546200016890620003ee565b90600052602060002090601f0160209004810192826200018c5760008555620001d8565b82601f10620001a757805160ff1916838001178555620001d8565b82800160010185558215620001d8579182015b82811115620001d7578251825591602001919060010190620001ba565b5b509050620001e79190620001eb565b5090565b5b8082111562000206576000816000905550600101620001ec565b5090565b6000620002216200021b8462000366565b6200033d565b9050828152602081018484840111156200023a57600080fd5b62000247848285620003b8565b509392505050565b600082601f8301126200026157600080fd5b8151620002738482602086016200020a565b91505092915050565b6000602082840312156200028f57600080fd5b600082015167ffffffffffffffff811115620002aa57600080fd5b620002b8848285016200024f565b91505092915050565b6000620002ce826200039c565b620002da8185620003a7565b9350620002ec818560208601620003b8565b620002f781620004b8565b840191505092915050565b600060408201905081810360008301526200031e8185620002c1565b90508181036020830152620003348184620002c1565b90509392505050565b6000620003496200035c565b905062000357828262000424565b919050565b6000604051905090565b600067ffffffffffffffff82111562000384576200038362000489565b5b6200038f82620004b8565b9050602081019050919050565b600081519050919050565b600082825260208201905092915050565b60005b83811015620003d8578082015181840152602081019050620003bb565b83811115620003e8576000848401525b50505050565b600060028204905060018216806200040757607f821691505b602082108114156200041e576200041d6200045a565b5b50919050565b6200042f82620004b8565b810181811067ffffffffffffffff8211171562000451576200045062000489565b5b80604052505050565b7f4e487b7100000000000000000000000000000000000000000000000000000000600052602260045260246000fd5b7f4e487b7100000000000000000000000000000000000000000000000000000000600052604160045260246000fd5b6000601f19601f8301169050919050565b61086180620004d96000396000f3fe608060405234801561001057600080fd5b506004361061004c5760003560e01c80630c55699c14610051578063a41368621461006f578063cfae32171461008b578063d09de08a146100a9575b600080fd5b6100596100c7565b60405161006691906105e5565b60405180910390f35b610089600480360381019061008491906104b7565b6100cd565b005b610093610194565b6040516100a09190610540565b60405180910390f35b6100b1610226565b6040516100be91906105e5565b60405180910390f35b60015481565b61017a60405180606001604052806023815260200161080960239139600080546100f6906106be565b80601f0160208091040260200160405190810160405280929190818152602001828054610122906106be565b801561016f5780601f106101445761010080835404028352916020019161016f565b820191906000526020600020905b81548152906001019060200180831161015257829003601f168201915b5050505050836102e4565b80600090805190602001906101909291906103ac565b5050565b6060600080546101a3906106be565b80601f01602080910402602001604051908101604052809291908181526020018280546101cf906106be565b801561021c5780601f106101f15761010080835404028352916020019161021c565b820191906000526020600020905b8154815290600101906020018083116101ff57829003601f168201915b5050505050905090565b60006001600081548092919061023b90610721565b9190505550600154905090565b6102e0828260405160240161025e929190610562565b6040516020818303038152906040527f4b5c4277000000000000000000000000000000000000000000000000000000007bffffffffffffffffffffffffffffffffffffffffffffffffffffffff19166020820180517bffffffffffffffffffffffffffffffffffffffffffffffffffffffff8381831617835250505050610383565b5050565b61037e8383836040516024016102fc93929190610599565b6040516020818303038152906040527f2ced7cef000000000000000000000000000000000000000000000000000000007bffffffffffffffffffffffffffffffffffffffffffffffffffffffff19166020820180517bffffffffffffffffffffffffffffffffffffffffffffffffffffffff8381831617835250505050610383565b505050565b60008151905060006a636f6e736f6c652e6c6f679050602083016000808483855afa5050505050565b8280546103b8906106be565b90600052602060002090601f0160209004810192826103da5760008555610421565b82601f106103f357805160ff1916838001178555610421565b82800160010185558215610421579182015b82811115610420578251825591602001919060010190610405565b5b50905061042e9190610432565b5090565b5b8082111561044b576000816000905550600101610433565b5090565b600061046261045d84610625565b610600565b90508281526020810184848401111561047a57600080fd5b61048584828561067c565b509392505050565b600082601f83011261049e57600080fd5b81356104ae84826020860161044f565b91505092915050565b6000602082840312156104c957600080fd5b600082013567ffffffffffffffff8111156104e357600080fd5b6104ef8482850161048d565b91505092915050565b600061050382610656565b61050d8185610661565b935061051d81856020860161068b565b610526816107f7565b840191505092915050565b61053a81610672565b82525050565b6000602082019050818103600083015261055a81846104f8565b905092915050565b6000604082019050818103600083015261057c81856104f8565b9050818103602083015261059081846104f8565b90509392505050565b600060608201905081810360008301526105b381866104f8565b905081810360208301526105c781856104f8565b905081810360408301526105db81846104f8565b9050949350505050565b60006020820190506105fa6000830184610531565b92915050565b600061060a61061b565b905061061682826106f0565b919050565b6000604051905090565b600067ffffffffffffffff8211156106405761063f6107c8565b5b610649826107f7565b9050602081019050919050565b600081519050919050565b600082825260208201905092915050565b6000819050919050565b82818337600083830152505050565b60005b838110156106a957808201518184015260208101905061068e565b838111156106b8576000848401525b50505050565b600060028204905060018216806106d657607f821691505b602082108114156106ea576106e9610799565b5b50919050565b6106f9826107f7565b810181811067ffffffffffffffff82111715610718576107176107c8565b5b80604052505050565b600061072c82610672565b91507fffffffffffffffffffffffffffffffffffffffffffffffffffffffffffffffff82141561075f5761075e61076a565b5b600182019050919050565b7f4e487b7100000000000000000000000000000000000000000000000000000000600052601160045260246000fd5b7f4e487b7100000000000000000000000000000000000000000000000000000000600052602260045260246000fd5b7f4e487b7100000000000000000000000000000000000000000000000000000000600052604160045260246000fd5b6000601f19601f830116905091905056fe4368616e67696e67206772656574696e672066726f6d202725732720746f2027257327a264697066735822122010e794698522817ec3753fa8fc005de759887b64e8fbc7ff38ce58dd19c5a07c64736f6c634300080400334465706c6f79696e67206120477265657465722077697468206772656574696e673a",
  "linkReferences": {},
  "deployedLinkReferences": {}
}